:020000040800F2
:1000000000000320DD020008F5280008F72800089A
:10001000F9280008FB280008FD280008000000005F
:10002000000000000000000000000000FF280008A1
:100030000129000800000000032900080529000824
:10004000E1030008E1030008E1030008E103000800
:10005000E1030008E1030008E1030008E1030008F0
:10006000E1030008E1030008E1030008E1030008E0
:10007000E1030008E1030008E1030008E1030008D0
:10008000E1030008E1030008E1030008E1030008C0
:10009000E1030008E1030008E1030008E1030008B0
:1000A000E1030008E1030008E1030008E1030008A0
:1000B000E1030008E1030008E1030008E103000890
:1000C000E1030008E1030008E1030008E103000880
:1000D000E1030008E10300080D290008E10300081E
:1000E000E1030008E1030008E1030008E103000860
:1000F000E1030008E1030008E1030008E103000850
:10010000E1030008E1030008E1030008E10300083F
:10011000E1030008E1030008E1030008E10300082F
:10012000E1030008E1030008E1030008E10300081F
:10013000E1030008E1030008E1030008E10300080F
:10014000E1030008E1030008E1030008E1030008FF
:10015000E1030008E1030008E1030008E1030008EF
:10016000E1030008E1030008E1030008E1030008DF
:10017000E1030008E1030008E103000800000000BB
:10018000E1030008E1030008E1030008E1030008BF
:10019000E1030008E1030008E1030008E1030008AF
:1001A000E1030008E1030008E103000800B583B0A3
:1001B00001F046FC384B394A1360394A136039491B
:1001C00000E02146384B99420BD20A684B6801F196
:1001D0000C0488689842F4D952F8041B43F8041BB5
:1001E000F8E72E4B1A68314B9A4200D0FEE72C4BB1
:1001F0001A682F4B9A42F9D1274B2E4A13602E4A88
:1002000013602E4A05E0002043F8040B9A42FAD806
:100210000A462B4B9A4204D2114651F8083B5268C9
:10022000F4E7244B1B6813B9234B1B6803B1FEE7AB
:1002300002F03AFA694601A801F02AFB214C224B50
:10024000E41AA410002504E01F4B53F8253098470A
:100250000135AC42F8DC1D4C1D4BE41AA4100025FE
:1002600004E01B4B53F8253098470135AC42F8DCCD
:100270000099019802F080FA0546164C164BE41AD4
:10028000A41004E0013C144B53F824309847002C90
:10029000F8DC284601F0D8FABABADECA000000201D
:1002A0007C000020E4030008FC03000878563412A8
:1002B0003254769880000020940D0020FC03000842
:1002C0000C0400080C0400080C0400080C040008CE
:1002D0000C0400080C0400080C04000808B5FFF723
:1002E00065FF00BEFEE71EF0040F0CBFEFF30880B1
:1002F000EFF309807146374A10472DE9F04182B08B
:1003000004460D46084B5F6BD3F838809E6A074859
:1003100001F002FB009543463A463146204601F083
:1003200015FB00BEFEE700BF00ED00E05C3D0008ED
:1003300000BEFEE71EF0040F0CBFEFF30880EFF3E2
:1003400009807146244A10472DE9F04182B00446E5
:100350000D46084B5F6BD3F838809E6A064801F063
:10036000DBFA009543463A463146204601F0EEFA64
:1003700000BEFEE700ED00E06C3D00081EF0040F3B
:100380000CBFEFF30880EFF309807146134A104762
:100390002DE9F04182B004460D46084B5F6BD3F85F
:1003A00038809E6A064801F0B7FA009543463A46FF
:1003B0003146204601F0CAFA00BEFEE700ED00E03B
:1003C000783D000800BEFEE700BEFEE700BEFEE787
:1003D00070470000FB020008490300089103000871
:0403E00000BEFEE776
:1003E400144100080000002080000020144100088F
:1003F400000000100000001080000020980D002074
:080404000000001000000010D0
:1004100010B504460E4B18784FF47A73B3FBF0F323
:100420000C4A1068B0FBF3F000F0D4F868B90F2C58
:1004300001D901200AE0002221464FF0FF3000F0F0
:100440006BF8054B1C60002000E0012010BD00BFD0
:1004500004000020140000200800002008B50B4B09
:100460001A6842F400721A601A6842F480621A60D4
:100470001A6842F480721A60032000F02FF80020FE
:10048000FFF7C6FF02F01AFA002008BD003C024048
:10049000034A1168034B1B780B441360704700BF7D
:1004A000880C002004000020014B1868704700BF32
:1004B000880C002038B50446FFF7F6FF0546B4F176
:1004C000FF3F02D0044B1B781C44FFF7EDFF401B9D
:1004D000A042FAD338BD00BF0400002010B5044686
:1004E000C31E042B0FD80A4AD36823F4E0631B040D
:1004F0001B0C240204F4E064234343F0BF6343F481
:100500000033D36010BD9221024802F0D5F8EAE72B
:1005100000ED00E07C3B000870B505460C46164631
:100520000F2A25D80F2C28D81B4BDB68C3F30223D6
:10053000C3F10701042928BF04211A1D062A21D965
:10054000033B4FF0FF3202FA01F124EA01049C4020
:1005500002FA03F326EA03063443002D14DB2401D8
:10056000E4B205F1604505F5614585F8004370BDCD
:10057000AA210A4802F0A0F8D4E7AB21074802F00C
:100580009BF8D1E70023DCE705F00F052401E4B276
:10059000034B5C55EBE700BF00ED00E07C3B00083F
:1005A00014ED00E010B5041E0ADB002C07DB04F09C
:1005B0001F02640901239340044A42F8243010BD0D
:1005C000BE21034802F078F8EFE700BF00E100E049
:1005D0007C3B00080138B0F1807F0AD2064B58609E
:1005E000064AF02182F823100020986007221A6042
:1005F00070470120704700BF10E000E000ED00E010
:1006000090F83530DBB2022B03D080234365012004
:100610007047052380F835300268136823F0010322
:1006200013600020704700002DE9F04383B00746B7
:100630000E46B94B98422BD003F58063984227D0E1
:1006400003F58063984223D003F5806398421FD05E
:1006500003F5806398421BD003F58063984217D05E
:1006600003F58063984213D003F5806398420FD05E
:1006700003F5806398420BD003F58063984207D05E
:1006800003F58063984203D0B321A44802F014F824
:1006900033689AB212B11B0C1B041BB1B4219F48E2
:1006A00002F00AF87368012B1ED9112B1CD0022B03
:1006B0001AD0122B18D09A4A934215D002F5801204
:1006C000934211D002F5801293420DD0A2F5F81298
:1006D000934209D002F58012934205D002F58012B0
:1006E000934201D0032B04D1B368022B06D8002417
:1006F0004BE0B521894801F0DFFFF5E7B6218748D7
:1007000001F0DAFFF3E7C821844801F0D5FF52E099
:10071000E021824801F0D0FF92E0092300E00023AD
:100720008B40034302327F4941F822307E4B1A68E6
:100730006FEA080322EA0801706810F4803F01D0D4
:1007400048EA0201784A1160526803EA02017068BF
:1007500010F4003F01D048EA0201734A51609268E8
:1007600003EA0201706810F4801F01D048EA020118
:100770006D4A9160D2681340716811F4001F01D076
:1007800048EA0203684AD36001340F2C00F2D68095
:100790000125A540336803EA050835EA0303F3D1D0
:1007A00073685A1E012A03D9112B01D0122B15D1BF
:1007B000F368032BA7D8BA68610003238B4022EAB1
:1007C0000302F3688B401343BB607A6822EA050298
:1007D0007368C3F30015A54015437D60FA68650092
:1007E0000323AB406FEA030922EA0302B368AB407C
:1007F0001343FB607368022B01D0122B30D1336995
:10080000F3B1092B1CD0012B1AD0022B18D0032BCB
:1008100016D0042B14D0052B12D0062B10D0072B8A
:100820000ED0082B0CD00A2B0AD00B2B08D00C2B87
:1008300006D00D2B04D00F2B02D00E2B7FF468AF07
:10084000E208083257F8220004F0070399000F234A
:100850008B4020EA030033698B40034347F8223082
:100860003B6809EA0309736803F00303AB4043EAFA
:1008700009033B60736813F0805F85D00023019308
:100880002A4B5A6C42F480425A645B6C03F48043F6
:100890000193019BA208911C224B53F8210004F004
:1008A000030399000F238B4020EA03001A4B9F4259
:1008B0003FF435AF03F580639F4222D003F5806398
:1008C0009F4220D003F580639F421ED003F58063D2
:1008D0009F421CD003F580639F421AD003F58063CA
:1008E0009F4225D003F580639F4223D003F58063A8
:1008F0009F4221D003F580639F423FF40EAF0A234D
:100900000EE701230CE702230AE7032308E7042389
:1009100006E7052304E700BF00000240B03B0008E3
:100920000000111000380140003C01400038024036
:100930000623F5E60723F3E60823F1E603B0BDE856
:10094000F08300BF70B5054614460E4621B1012C58
:1009500008D86CB1AE6170BD40F29F11064801F03D
:10096000ABFEF4E74FF4D071034801F0A5FEF0E7C9
:100970003604AE61EFE700BFB03B0008002800F08E
:100980005C8270B582B0044603680F2B39D82368A7
:1009900013F0010F4DD063682BB1B3F5803F02D047
:1009A000B3F5A02F32D1A54B9B6803F00C03042BA9
:1009B00036D0A24B9B6803F00C03082B2BD0636846
:1009C000B3F5803F5FD0B3F5A02F62D09B4B1A6880
:1009D00022F480321A601A6822F480221A60636856
:1009E000002B60D0FFF760FD0546944B1B6813F4A5
:1009F000003F1ED1FFF758FD401B6428F5D90320A6
:100A000022E2E8218E4801F057FEC0E7ED218C4834
:100A100001F052FEC7E7894B5B6813F4800FCED01C
:100A2000864B1B6813F4003F03D06368002B00F073
:100A30000682236813F0020F66D0E368012B41D8C9
:100A400023691F2B44D87D4B9B6813F00C0F4AD0B1
:100A50007A4B9B6803F00C03082B3FD0E368002B14
:100A600076D0784B01221A60FFF71EFD0546734BC6
:100A70001B6813F0020F62D1FFF716FD401B02281E
:100A8000F5D90320E0E16D4A136843F48033136025
:100A9000A5E76A4B1A6842F480221A601A6842F489
:100AA00080321A609BE7FFF7FFFC0546634B1B682B
:100AB00013F4003FBDD0FFF7F7FC401B6428F5D9C5
:100AC0000320C1E140F21F115D4801F0F5FDB7E7D9
:100AD0004FF490715A4801F0EFFDB4E7574B5B6853
:100AE00013F4800FBAD1554B1B6813F0020F03D0DB
:100AF000E368012B40F0A581504A136823F0F80306
:100B0000216943EAC1031360236813F0080F49D039
:100B10006369012B2ED8636993B34B4B01221A6092
:100B2000FFF7C2FC0546454B5B6F13F0020F39D14E
:100B3000FFF7BAFC401B0228F5D9032084E13F4AA5
:100B4000136823F0F803216943EAC1031360DBE76C
:100B50003C4B00221A60FFF7A7FC0546374B1B6889
:100B600013F0020FD0D0FFF79FFC401B0228F5D9ED
:100B7000032069E14FF4B071314801F09DFDCAE7EF
:100B8000314B00221A60FFF78FFC05462B4B5B6F41
:100B900013F0020F06D0FFF787FC401B0228F5D99F
:100BA000032051E1236813F0040F00F08880A3684C
:100BB000012B01D9052B12D1204B1B6C13F0805F48
:100BC00013D1002301931D4B1A6C42F080521A641A
:100BD0001B6C03F080530193019B012506E04FF449
:100BE000C671174801F068FDE6E70025174B1B6842
:100BF00013F4807F2CD0A368012B3DD0052B41D06E
:100C00000E4B1A6F22F001021A671A6F22F00402CB
:100C10001A67A368002B3FD0FFF746FC0646074B38
:100C20001B6F13F0020F48D1FFF73EFC801B41F20F
:100C300088339842F3D9032006E100BF0038024010
:100C4000E03B000800004742800E47420070004031
:100C5000844A136843F480731360FFF725FC06464B
:100C6000804B1B6813F4807FC5D1FFF71DFC801BF0
:100C70000228F5D90320E7E07B4A136F43F0010314
:100C80001367C6E7784B1A6F42F004021A671A6FAF
:100C900042F001021A67BCE7FFF706FC0646724BFA
:100CA0001B6F13F0020F08D0FFF7FEFB801B41F211
:100CB00088339842F3D90320C6E0002D3BD1A369C5
:100CC000022B3ED8A369002B00F0BD80664A9268D3
:100CD00002F00C02082A00F09080022B79D1E3691F
:100CE00013B1B3F5800F32D1236A3F2B35D8636A35
:100CF000323BB3F5BF7F36D8A36A022B05D0042B55
:100D000003D0062B01D0082B33D1E36A023B0D2B15
:100D100035D8564B00221A60FFF7C6FB0546524BEA
:100D20001B6813F0007F30D0FFF7BEFB401B02288A
:100D3000F5D9032088E04C4A136C23F080531364E8
:100D4000BDE740F2CF114A4801F0B6FCBAE74FF4D4
:100D5000EC71474801F0B0FCC6E740F2D9114448B5
:100D600001F0AAFCC3E74FF4ED71414801F0A4FC87
:100D7000C2E740F2DB113E4801F09EFCC5E74FF4AC
:100D8000EE713B4801F098FCC3E7E369226A134324
:100D9000626A43EA8213A26A5208013A43EA0243B2
:100DA000E26A43EA0263304A5360304B01221A6020
:100DB000FFF77AFB04462C4B1B6813F0007F06D12B
:100DC000FFF772FB001B0228F5D903203CE000204E
:100DD0003AE0264B00221A60FFF766FB0446224BDE
:100DE0001B6813F0007F06D0FFF75EFB001B022894
:100DF000F5D9032028E0002026E0012B26D01A4B4D
:100E00005B6803F48001E269914221D103F03F0263
:100E1000216A8A421ED1616A47F6C0721A408A422C
:100E20001AD103F44032A16A8A4217D103F07063E9
:100E3000E26A934214D1002006E0012070470120AD
:100E400002E0012000E0002002B070BD0120FBE7BD
:100E50000120F9E70120F7E70120F5E70120F3E79A
:100E60000120F1E700700040003802406000474276
:100E7000E03B0008F8B52F4B9B6803F00C03042BF4
:100E800053D0082B53D12B4B5A6802F03F025B68BA
:100E900013F4800F28D0274B5B68C3F388135801E5
:100EA0000021C01A61F100018E0146EA90668701B7
:100EB0003C1A66EB0105E90041EA5471E000C018F4
:100EC00041F100014B0243EAD05344022046194647
:100ED000002301F039FF174B5B68C3F30143013373
:100EE0005B00B0FBF3F023E0124B5B68C3F38813A5
:100EF0005C010025E41A65F10005AE0146EA94663E
:100F0000A701381B66EB0501CC0044EA5074C5000C
:100F1000E81844F100018B0243EA90538402204612
:100F20001946002301F010FFD5E7034800E003480D
:100F3000F8BD00BF0038024000127A000024F4001F
:100F4000002800F0F78070B50D4604460368013BA9
:100F50000E2B6BD80F2D6FD87A4B1B6803F00F0345
:100F6000AB4208D2EBB2774A1370136803F00F0359
:100F7000AB4240F0E180236813F0020F29D013F058
:100F8000040F04D0704A936843F4E05393602368DD
:100F900013F0080F04D06C4A936843F460439360E5
:100FA000A3687BB1802B0DD0902B0BD0A02B09D048
:100FB000B02B07D0C02B05D0D02B03D0E02B01D015
:100FC000F02B3FD1604A936823F0F003A1680B43F4
:100FD0009360236813F0010F4ED06368032B37D85A
:100FE0006368012B3AD09A1E012A3ED9564A1268EC
:100FF00012F0020F00F0A28053498A6822F0030227
:1010000013438B60FFF750FA06464F4B9B6803F083
:101010000C036268B3EB820F2ED0FFF745FA801BFA
:1010200041F288339842F0D9032076E040F2512112
:10103000464801F041FB8DE740F25221434801F060
:101040003BFB89E740F27521404801F035FBB9E7E9
:101050004FF41F713D4801F02FFBC1E73A4A126877
:1010600012F4003FC8D1012057E0374A126812F04D
:10107000007FC1D1012050E0324B1B6803F00F0309
:10108000AB4207D9EAB22F4B1A701B6803F00F036B
:10109000AB4255D1236813F0040F14D0E3685BB161
:1010A000B3F5805F08D0B3F5A05F05D0B3F5C05F9E
:1010B00002D0B3F5E05F31D1234A936823F4E053C3
:1010C000E1680B439360236813F0080F15D0236980
:1010D0005BB1B3F5805F08D0B3F5A05F05D0B3F581
:1010E000C05F02D0B3F5E05F1ED1174A936823F4C6
:1010F0006043216943EAC1039360FFF7BBFE124BD3
:101100009B68C3F30313124AD35CD840114B186099
:10111000114B1868FFF77CF9002070BD40F2BA212E
:101120000A4801F0C9FAC7E740F2C121074801F0B7
:10113000C3FADAE7012070470120EEE70120ECE76F
:101140000120EAE7003C024000380240E03B000892
:10115000883D00081400002008000020014B18689A
:10116000704700BF1400002008B5FFF7F7FF044BDD
:101170009B68C3F38223034AD35CD84008BD00BFF9
:1011800000380240983D000808B5FFF7E7FF044B20
:101190009B68C3F34233034AD35CD84008BD00BF09
:1011A00000380240983D00080268D36823F4907329
:1011B000D3600268536923F001035361202380F850
:1011C0003A30704790F83930DBB2212B01D0022041
:1011D00070478368B3F5805F17D0036A5A1C0262B8
:1011E0001A7803685A60C38C9BB2013B9BB2C384DC
:1011F0004BB90268D36823F08003D3600268D368D8
:1012000043F04003D36000207047036A1B880268E4
:10121000C3F30803536003691BB9036A0233036213
:10122000E1E7036A01330362DDE7000070B50446BD
:1012300042688D4B9A426FD8E36813B1B3F5005FF3
:1012400070D123692BB1B3F5806F02D0B3F5C06FB5
:101250006ED163694FF6F372134200D123B940F6A1
:10126000FE31824801F028FA2268136923F44053C2
:10127000E1680B431361A368226913436269134356
:10128000E2691A432168CB6823F4164323F00C0368
:101290001343CB602268536923F44073A1690B4365
:1012A0005361E369B3F5004F48D02368704A934215
:1012B00000F0AC8002F58062934200F0A780FFF757
:1012C00053FF0026051846EB06012D1846EB0101D9
:1012D000CB0043EA5573EA001546194663689A0045
:1012E0009B0F281846EB010101F02EFD614DA5FB77
:1012F00000325109642303FB11031B013233A5FBA8
:1013000003235B0903F0F00202EB011203F00F0369
:10131000216813448B60A5E040F6FB31534801F08F
:10132000CBF989E740F6FC31504801F0C5F988E770
:1013300040F6FD314D4801F0BFF98AE723684C4A79
:10134000934233D002F5806293422FD0FFF70CFF17
:101350000026051846EB06012D1846EB0101CB00CF
:1013600043EA5573EA0015461946626833469218F7
:1013700046EB0303281846EB010101F0E5FC3D4D67
:10138000A5FB00325109642303FB1103DB00323358
:10139000A5FB03235B095A0002F4F87202EB011269
:1013A00003F00703216813448B605BE0FFF7ECFE5A
:1013B0000026051846EB06012D1846EB0101CB006F
:1013C00043EA5573EA001546194662683346921897
:1013D00046EB0303281846EB010101F0B5FC254D4F
:1013E000A5FB00325109642303FB1103DB003233F8
:1013F000A5FB03235B095A0002F4F87202EB011209
:1014000003F00703216813448B602BE0FFF7BCFE59
:101410000026051846EB06012D1846EB0101CB000E
:1014200043EA5573EA001546194663689A009B0F14
:10143000281846EB010101F087FC0E4DA5FB003298
:101440005109642303FB11031B013233A5FB032362
:101450005B0903F0F00202EB011203F00F032168B5
:1014600013448B6070BD00BFA037A000103C000883
:10147000001001401F85EB51002800F0938010B54B
:1014800004468369002B55D00368474A934210D025
:10149000A2F54C4293420CD002F58062934208D0F0
:1014A00002F54C42934204D040F24B113F4801F008
:1014B00003F9A36943B1B3F5807F05D0B3F5007F8D
:1014C00002D0B3F5407F2FD1A36813B1B3F5805F8D
:1014D00056D1E36913B1B3F5004F57D194F83930C1
:1014E000002B59D0242384F839302268D36823F4A0
:1014F0000053D3602046FFF799FE2268136923F456
:10150000904313612268536923F02A0353612268D0
:10151000D36843F40053D3600020E063202384F8B1
:10152000393084F83A3010BD4FF4A6711F4801F0ED
:10153000C3F8C9E703681C4A9342C5D0A2F54C42E0
:101540009342C1D002F580629342BDD002F5806221
:101550009342B9D002F580629342B5D002F544427D
:101560009342B1D0A2F51C429342ADD002F5806205
:101570009342A9D04FF4A8710C4801F09DF8A3E75D
:101580004FF4A971094801F097F8A2E740F253110E
:10159000064801F091F8A1E784F83830204601F0C0
:1015A000D7F99FE70120704700100140103C000868
:1015B00090F83930DBB2202B16D1B9B1C2B190F816
:1015C0003830012B16D001628284C2840023C363A9
:1015D000212280F8392080F838300168CA6842F04A
:1015E0008002CA6018467047022070470120704789
:1015F000012070470220704790F83A30DBB2202B70
:1016000020D109B312B390F83830012B20D0816279
:101610008285C2850023C363222280F83A2080F8A5
:1016200038300168CA6842F48072CA6001684A6949
:1016300042F001024A610168CA6842F02002CA60B1
:1016400018467047022070470120704701207047FC
:1016500002207047704708B50168CA6822F040024E
:10166000CA60202280F83920FFF7F4FF002008BD6F
:1016700008B590F83A30DBB2222B46D18368B3F537
:10168000805F0FD003690BBB03685A68836A591CDB
:1016900081621A70C38D9BB2013B9BB2C385F3B1CB
:1016A000002008BD826A036943B903685B68C3F31D
:1016B00008031380836A02338362EBE703685B6885
:1016C000DBB21380836A01338362E3E703685B68FC
:1016D000826A511C816203F07F031370DAE70268AB
:1016E000D36823F02003D3600268D36823F48073A7
:1016F000D3600268536923F001035361202380F80B
:101700003A3000F0E3FF0020CBE70220C9E7704742
:1017100010B5044602681368D168526913F00F00CF
:1017200005D113F0200F02D011F0200F13D128B1F2
:1017300012F0010213D111F4907F10D113F0800F39
:1017400002D011F0800F6CD113F0400F02D011F0D5
:10175000400F6AD110BD2046FFF78AFFFAE713F069
:10176000010F06D011F4807F03D0E06B40F0010040
:10177000E06313F0040F04D01AB1E06B40F00200F4
:10178000E06313F0020F04D01AB1E06B40F00400E4
:10179000E06313F0080F07D011F0200F00D11AB149
:1017A000E26B42F00802E263E26B002AD2D013F04F
:1017B000200F02D011F0200F21D123685B6903F0C4
:1017C0004003E26B12F0080F00D123B32046FFF76D
:1017D000EBFC23685A6912F0400F18D05A6922F0C6
:1017E00040025A61636B73B1124A1A65606BFEF76F
:1017F00007FF0028AED0606B036D9847AAE720462C
:10180000FFF736FFD9E72046FFF781FFA2E7204622
:10181000FFF77DFF9EE72046FFF779FF0023E36394
:1018200098E72046FFF7CEFC94E72046FFF713FF2A
:1018300090E700BF3918000808B5806B0023C38506
:10184000C384FFF764FF08BDFEE7000008B5034648
:101850000C4A12685AB10B4A1068033323F0030391
:101860000344094A934206D8064A136008BD054A54
:1018700006491160EFE701F0E5FB0C2303604FF030
:10188000FF30F3E78400002000FC0220980D0020C8
:1018900001230360014B0B60704700BF0C00002068
:1018A00000228A4231D24FF06043D3F8803E13F0D9
:1018B000010F28D04FF06043D3F8003E13F0010F22
:1018C00021D010B44FF060431B68002BFAD010F900
:1018D000013BDBB24FF06044237001328A4210D2E8
:1018E0004FF06043D3F8803E13F0010F06D04FF065
:1018F0006043D3F8003E13F0010FE3D1104610BC53
:1019000070470846FBE7104670470846704708B521
:10191000FFF7C6FF08BD00000FB400B583B004ABED
:1019200053F8042B01938021074801F0CBFC0028D9
:1019300004DC03B05DF804EB04B0704701460248D4
:10194000FFF7E5FFF5E700BF8C000020F8B504467F
:101950000D4617461E462748FFF7DEFF216826483A
:10196000FFF7DAFF61682548FFF7D6FFA168244832
:10197000FFF7D2FFE1682348FFF7CEFF2169224835
:10198000FFF7CAFF61692148FFF7C6FFA169204838
:10199000FFF7C2FFE1691F48FFF7BEFF1E48FFF7D0
:1019A000BBFF29461D48FFF7B7FF1D4CE16A1D48E4
:1019B000FFF7B2FF216B1C48FFF7AEFFE16B1B483E
:1019C000FFF7AAFF15F0800F0AD115F4004F0CD1D4
:1019D0001748FFF7A1FF06991648FFF79DFFF8BDCE
:1019E00039461548FFF798FFEFE731461348FFF7F0
:1019F00093FFEDE7403C0008503C0008603C0008C5
:101A0000703C0008803C0008903C0008A03C0008A6
:101A1000B03C0008C03C0008D03C0008DC3C00089A
:101A200000ED00E0EC3C0008FC3C00080C3D000828
:101A30003C3D0008443D00081C3D00082C3D0008CA
:101A400008B500F009F8024A024B9A6008BD00BFD1
:101A50000000000800ED00E0024B4FF000629A60C9
:101A6000704700BF00ED00E0224B9B6803F00C03C1
:101A7000042B14D0082B16D01BB11F4B1F4A1A6021
:101A800002E01D4B1D4A1A601A4B9B68C3F30313F7
:101A90001B4AD15C184A1368CB4013607047164B41
:101AA000184A1A60F0E7134B5A685B6803F03F036B
:101AB00012F4800F13D0134AB2FBF3F20D4B5B68A4
:101AC000C3F3881303FB02F30A4A5268C2F30142CC
:101AD00001325200B3FBF2F3074A1360D4E7074A1E
:101AE000B2FBF3F2034B5B68C3F3881303FB02F30F
:101AF000EAE700BF00380240140000200024F40090
:101B0000883D000800127A0070B50446037A032B62
:101B100021D0042B21D0002504F10C0393E8070009
:101B200000F009FA02300544E37EC3B9236C3BB3ED
:101B300004F1400393E8070000F0FDF9023005448A
:101B4000E36C0BB34C3494E8070000F0F4F9023076
:101B50000544284670BD0C25DEE70A25DCE704F1C4
:101B6000240393E8070000F0E6F9861C04F1300333
:101B700093E8070000F0DFF9064402363544D5E764
:101B8000A36C002BD4D1DBE7636D002BDAD1E0E747
:101B9000F0B583B006460D46144601901046FFF797
:101BA000B3FF074600F02CF9A84200F38380002120
:101BB0006FF30701012363F3071149B201A800F095
:101BC0004DF93946019800F0DBF8019B034401937D
:101BD000237A042B41D0394901A800F05CF9032194
:101BE00001A800F03BF900216FF30701A37E63F326
:101BF0004101E37E003B18BF012363F3820111F032
:101C0000040F07D094F83D3063F3C40194F83C30DE
:101C100063F34511236C53B341F08001E36C53B37C
:101C200041F04001CFB24DB2294601A800F016F9AB
:101C3000218B01A800F018F904F10C030ECB01A8C8
:101C400000F03DF9E37ED3B9002D25DB17F0400FFE
:101C500029D10198801B03B0F0BD194901A800F0FB
:101C60001AF904210DEB010000F0F8F8BBE7A36CB2
:101C7000002BD1D1D2E7636D002BD1D1D2E704F193
:101C800024030ECB01A800F01AF904F130030ECBA7
:101C900001A800F014F9D7E704F140030ECB01A826
:101CA00000F00DF9D2E74C3494E80E0001A800F0E2
:101CB00006F9CEE76FF00100CDE700BFA83D0008B0
:101CC000A03D00082DE9F04383B081460E4617463B
:101CD00098460D9B01930023009301A800F0B8F8EB
:101CE000C4B2002564F3070504F0F004302C04D0DE
:101CF0000024204603B0BDE8F083C5F3C00389F893
:101D00000030C5F341033360C5F300053D706946FB
:101D1000019800F089F80446019D05440195009B57
:101D20001D442A4601A90A9800F0EBF80028E0D0EB
:101D3000019BEB1A002BDCDB3368002B07DC019BDB
:101D4000ED1A0C9A15600B9A13600124D1E701A8D3
:101D500000F076F8A8F80000F1E7000070B406463D
:101D600008460023834207DA044C2268551C25608C
:101D7000127832700133F5E770BC70470C01002017
:101D800070B40646002409E001F17F0511E063F01C
:101D90007F03601C33557F2A0FDD04464A4201F061
:101DA0007F0302F07F0258BF53420A460D460029C6
:101DB000EADBE9117F2AECDDE9E770BC7047F0B59A
:101DC00083B007460D4600240C6001260134042C24
:101DD00012DC01210DF10700B84701280CD19DF854
:101DE000073003F07F032A6806FB03232B60F6010C
:101DF0009DF90730002BE9DB204603B0F0BD000061
:101E0000431C7F2B01DC02307047B3F5804F01DAB1
:101E100003307047034A934201DC043070470530B9
:101E2000704700BFFEFF1F0008B5034B1860034852
:101E3000FFF7C5FF08BD00BF0C0100205D1D0008B5
:101E4000036819785A780233036002EB0120704767
:101E50000346026812F9010B1A6070470368197093
:101E600003680133036070470B46002910DB0268EA
:101E7000C3F3072313700268531C03604B42C9B2BB
:101E8000DBB258BF59425170036801330360704799
:101E900001F1FF03EBE770B504460E46084601F07A
:101EA00041F9054601462046FFF7DEFF2A46314646
:101EB000206801F0CDF820682844206070BD30B55E
:101EC00085B0044604A800E90E00029D002D05DC43
:101ED000019989B12046FFF7DEFF0BE02946204635
:101EE000FFF7C2FF2A460399206801F0B1F8236882
:101EF0001D44256005B030BD00212046FFF7B4FF2A
:101F0000F8E770B505460B68D31A012B03DC0020F7
:101F100000232B6070BD0C4616460846FFF790FF65
:101F2000686023681844B04203D8AB602060012089
:101F3000EEE70020ECE700B585B004AB03E907004D
:101F4000019820B101F0EEF805B05DF804FB0298AD
:101F5000FAE730B585B0054601AC84E80E0094E898
:101F60000700FFF7E8FF831C08981844002D00DDE8
:101F7000023005B030BD2DE9F04784B006460F466B
:101F800090461C46DDF848900390CDF800900EABCB
:101F90000ECB2046FFF7DDFF8246FFF731FFB84248
:101FA0002EDC0025032363F3071568F3C30564F3F0
:101FB00042059DF8303063F3000569B203A8FFF7CE
:101FC0004DFF51460398FFF7DBFE039B0344039349
:101FD0000EAB0ECB03A8FFF772FF002C0ADC4A46BB
:101FE0001199039801F034F8039A4A44901B04B005
:101FF000BDE8F087BDF8341003A8FFF735FFEEE722
:102000006FF00100F3E7000008B50021034B1980D1
:1020100040F2B452024801F029F808BD7E0C0020BD
:10202000C806002008B50021044B1970044B198024
:1020300040F2B452034801F019F808BDC60600206A
:10204000C40600201001002070B506460C46154657
:1020500001F068F882B231460948FFF7A9FA28462C
:10206000FEF728FA2146074801F064F818B1FFF797
:10207000CBFF002070BDFFF7C7FF0120FAE700BFCC
:10208000480D00201001002070B5D6B0234D00246B
:1020900085F82440AC7436947C263246214637A815
:1020A00000F0E4FF16943246214617A800F0DEFF48
:1020B0002B8AEA681A4936A801F014F84FF4FA623C
:1020C000184936A8FFF7C0FF41F28830FEF7F2F951
:1020D000AB7C012B01D056B070BD58221249684626
:1020E00000F0B6FF6A691092AA691392EA69039236
:1020F0002B8CADF8183001238DF81A306A468021F8
:1021000016A8FFF745FD82B216A90848FFF750FA56
:1021100041F28830FEF7CEF9DDE700BF900C0020D9
:10212000B03D0008CC3D0008983E0008480D002056
:1021300070B58AB02B4E0023B374029303930493BB
:10214000059306930793089309930122264927488C
:10215000FFF752FA264D4FF4FA6229462548FFF759
:1021600073FF4FF4FA6229462348FFF76DFF4FF4DF
:10217000FA6222492248FFF767FF04464FF4FA62E9
:1021800029462048FFF760FF04444FF4FA622946CD
:102190001D48FFF759FF0444B36801937368009327
:1021A00033681A4A202102A800F068FF4FF4FA624F
:1021B000294602A8FFF748FF04444FF4FA62294673
:1021C0001348FFF741FF04444FF4FA6211491248E3
:1021D000FFF73AFF14B120460AB070BDFFF754FF75
:1021E000F9E700BF900C00207C0C0020480D002077
:1021F000CC3D0008D43D0008DC3D0008E43D00086B
:10220000F03D0008003E0008103E0008203E000897
:102210003C3E0008383E0008483E0008F0B5CDB00E
:1022200007460E4600240C94FC2221460DA800F01F
:102230001DFF09AD0A940B940997304600F072FF18
:102240000690059602AB95E8070083E80700019425
:10225000009423464FF480710CA8FFF78CFE82B2E5
:102260000CA90448FFF7A4F96420FEF723F94DB048
:10227000F0BD00BF480D002010B588B004460A46E6
:102280000023009301930293039304930593069311
:1022900007930549684600F025FF69462046FFF789
:1022A000BDFF08B010BD00BF543E000810B588B097
:1022B00004460A4600230093019302930393049378
:1022C0000593069307930549684600F00BFF69469E
:1022D0002046FFF7A3FF08B010BD00BF543E000822
:1022E00010B588B004460A46002300930193029378
:1022F000039304930593069307930549684600F0FA
:10230000F1FE69462046FFF789FF08B010BD00BF07
:10231000583E000810B588B004460023009301938E
:10232000029303930493059306930793084600F0E2
:10233000B3FC02460B460549684600F0D3FE6946E9
:102340002046FFF76BFF08B010BD00BF5C3E0008E1
:1023500010B588B0044600210091019102910391CB
:1023600004910591069107910449684600F0BAFE70
:1023700069462046FFF752FF08B010BD5C3E0008DA
:1023800030B5C9B0054600240894FC22214609A8AE
:1023900000F06CFE05AB069407940595029401933A
:1023A0000123009322464FF4807108A800F001F940
:1023B00082B208A90348FFF7FBF86420FEF77AF819
:1023C00049B030BD480D0020F0B58BB00546194C22
:1023D00040273A460021204600F048FEA4F144067A
:1023E0003A460021304600F041FE04230493039551
:1023F000231F029306AB019307AB0093A4F146039E
:10240000A4F14802A4F14C01A4F14F00FFF75AFCDB
:10241000089D2A460999204600F01AFE256454F8C2
:10242000042C0699304600F013FE012304F8503CBA
:102430000BB0F0BD040D002010B5454A13885C1C9C
:10244000A4B21480434A1178434AD154434B9B7C35
:10245000CBB94349104600F06DFE034608B1022C8B
:102460002DD083B13F4C40F2B4523B49204600F09E
:10247000EFFDFFF7C9FD3C49204600F05BFE10B3BD
:10248000364B00229A743949334800F053FE20B38A
:10249000324B00229A74314B9B7C012B2AD0344B57
:1024A0001B78012B2ED02A4B1A8840F2B3539A4244
:1024B00049D8012227492F48FFF79EF810BD244B29
:1024C00000221A80DFE72C49264800F033FE00285E
:1024D000D9D0224B01229A74D5E728491E4800F032
:1024E00029FE0028D4D126491B4800F023FE0028ED
:1024F000CED1D0E7174B1B78302BD0D11C4B01220B
:102500001A70CCE7134B18781E490A88531C9BB2EB
:102510000B8014498854012B04D9013B91F9012007
:10252000934208DC174B1A8840F2B3539A42BAD947
:10253000FFF778FDB7E70846FFF746FFFFF764FDB2
:10254000FFF770FDEEE7FFF75FFDFFF76BFDB0E70C
:102550007E0C00207C0C0020C8060020900C00207F
:10256000E03D000810010020603E00087C3E0008AD
:10257000C6060020480D0020703E0008883E000876
:10258000903E0008C4060020F8B506460F46022516
:102590000024B4420BDA04EB440307EB830393E813
:1025A0000700FFF7C8FC033005440134F1E7284673
:1025B000F8BD2DE9F04F83B080468B4692461C460D
:1025C0000C9D0D9E0E9F019031462846FFF7DCFFC3
:1025D0008146FFF715FC584531DC00216FF30701F8
:1025E000082363F307116AF3C301012363F3420174
:1025F00049B201A8FFF732FC49460198FFF7C0FB3A
:10260000019B03440193214601A8FFF72DFC002400
:10261000AC420EDA04EB440306EB83030ECB01A8B5
:10262000FFF74DFC17F9241001A8FFF717FC013440
:10263000EEE70198A0EB080003B0BDE8F08F6FF063
:102640000100F9E730B589B000240394049405949F
:10265000069407940194124B1A6B42F001021A631C
:102660001A6B02F001020192019A02941A6B42F075
:1026700002021A631B6B03F002030293029B094DD3
:10268000224601212846FEF75DF9012303930493B6
:102690000594069403A92846FDF7C6FF09B030BD8E
:1026A000003802400004024008B5FDF7D7FE00F0F4
:1026B00019F8FFF7D9F908BD08B50A4601460248DE
:1026C000FFF72AF9FEE700BFF03E000808B5034B0C
:1026D000834200D008BDFFF7AFFEFBE7480D0020A6
:1026E00072B6FEE700B595B03022002108A800F0D0
:1026F000BDFC002303930493059306930793019372
:102700001A4A116C41F080511164126C02F080522F
:102710000192019A029316490A6822F4404242F457
:1027200000420A600A6802F440420292029A0222BF
:10273000089201220B9210220C920E9308A8FEF729
:102740001DF978B90F2303930021049105914FF4EB
:1027500080530693079103A8FEF7F2FB20B915B04A
:102760005DF804FBFFF7BCFFFFF7BAFF003802403B
:10277000007000400000000038B5FDF76FFEFFF765
:10278000B1FFFFF75FFF00F0C9F8394C00220121CB
:102790002046FEF7D7F840F6B830FDF78BFE012251
:1027A00011462046FEF7CEF842F21070FDF782FE89
:1027B000304B314A1A60314A5A609A60304ADA60C6
:1027C00040F25B721A822F4A5A612F4A9A612F4A4D
:1027D000DA6178221A84FFF7ABFC00250CE0FFF7E2
:1027E000A7FC25460CE02A48FFF7CAFD25460DE068
:1027F0004FF47A70FDF75EFE1E4B9C7C002CEED0F1
:102800001C4B9C7C012CF3D1002DECD0214922489B
:10281000FFF704FD01212148FFF72EFD022120488A
:10282000FFF744FD03211F48FFF75AFD1E491F48CB
:10283000FFF770FD0CA3D3E900231D48FFF788FDC7
:102840000C4B93F82430002BD2D01A4C204600F0C9
:10285000F5FB0246002304F80C3C04F14401164841
:10286000FFF75AF8C4E700BF9A99999999990140DE
:1028700000040240900C0020203F0008383E000871
:102880002C3F0008403F0008483F0008503F000828
:10289000583F0008603F0008683F0008783F000884
:1028A000843F0008943F0008CDCC8C3FA43F000833
:1028B000B03F0008C00C0020C03F000882B00021DB
:1028C00000910B4B5A6C42F480425A645A6C02F4E9
:1028D00080420092009A01911A6C42F080521A6470
:1028E0001B6C03F080530193019B02B0704700BF43
:1028F00000380240FEE7FEE7FEE7FEE7FEE770472E
:102900007047704708B5FDF7C3FD08BD08B502481C
:10291000FEF7FEFE08BD00BF480D002008B50A48BE
:102920000A4B03604FF4E133436000238360C360CC
:1029300003610C2242618361C361FEF79DFD00B912
:1029400008BDFFF7CDFEFBE7480D00200044004026
:1029500010B588B00023039304930593069307935F
:102960000268194B9A4201D008B010BD00240194AE
:1029700003F5FA331A6C42F400321A641A6C02F44A
:1029800000320192019A02941A6B42F001021A631A
:102990001B6B03F001030293029B0C23039302239E
:1029A00004930594032306930723079303A9074879
:1029B000FDF73AFE224621462620FDF7ADFD2620F2
:1029C000FDF7F0FDD0E700BF0044004000000240EA
:1029D00081F0004102E000BF83F0004330B54FEAD0
:1029E00041044FEA430594EA050F08BF90EA020F3D
:1029F0001FBF54EA000C55EA020C7FEA645C7FEAD0
:102A0000655C00F0E2804FEA5454D4EB5555B8BFF2
:102A10006D420CDD2C4480EA020281EA030382EA63
:102A2000000083EA010180EA020281EA0303362DF5
:102A300088BF30BD11F0004F4FEA01314FF4801CC8
:102A40004CEA113102D0404261EB410113F0004FDA
:102A50004FEA03334CEA133302D0524263EB430391
:102A600094EA050F00F0A780A4F10104D5F1200E2F
:102A70000DDB02FA0EFC22FA05F2801841F100018A
:102A800003FA0EF2801843FA05F359410EE0A5F15E
:102A900020050EF1200E012A03FA0EFC28BF4CF08F
:102AA000020C43FA05F3C01851EBE37101F0004545
:102AB00007D54FF0000EDCF1000C7EEB00006EEB52
:102AC0000101B1F5801F1BD3B1F5001F0CD34908DC
:102AD0005FEA30004FEA3C0C04F101044FEA445233
:102AE00012F5800F80F09A80BCF1004F08BF5FEABA
:102AF000500C50F1000041EB045141EA050130BD9A
:102B00005FEA4C0C404141EB0101013C28BFB1F5AB
:102B1000801FE9D291F0000F04BF01460020B1FAF6
:102B200081F308BF2033A3F10B03B3F120020CDAC9
:102B30000C3208DD02F1140CC2F10C0201FA0CF0A7
:102B400021FA02F10CE002F11402D8BFC2F1200C0C
:102B500001FA02F120FA0CFCDCBF41EA0C019040C2
:102B6000E41AA2BF01EB0451294330BD6FEA04040B
:102B70001F3C1CDA0C340EDC04F11404C4F12002F6
:102B800020FA04F001FA02F340EA030021FA04F308
:102B900045EA030130BDC4F10C04C4F1200220FA5F
:102BA00002F001FA04F340EA0300294630BD21FA9D
:102BB00004F0294630BD94F0000F83F4801306BF63
:102BC00081F480110134013D4EE77FEA645C18BF57
:102BD0007FEA655C29D094EA050F08BF90EA020FEE
:102BE00005D054EA000C04BF1946104630BD91EAE6
:102BF000030F1EBF0021002030BD5FEA545C05D1E9
:102C00004000494128BF41F0004130BD14F5800427
:102C10003CBF01F5801130BD01F0004545F0FE419B
:102C200041F470014FF0000030BD7FEA645C1ABFD0
:102C3000194610467FEA655C1CBF0B46024650EA07
:102C4000013406BF52EA033591EA030F41F4002133
:102C500030BD00BF90F0000F04BF0021704730B5B9
:102C60004FF4806404F132044FF000054FF000018E
:102C700050E700BF90F0000F04BF0021704730B54F
:102C80004FF4806404F1320410F0004548BF404224
:102C90004FF000013EE700BF42004FEAE2014FEA79
:102CA00031014FEA02701FBF12F07F4393F07F4F54
:102CB00081F06051704732F07F4208BF704793F057
:102CC0007F4F04BF41F40021704730B54FF460746A
:102CD00001F0004521F000411CE700BF50EA01026D
:102CE00008BF704730B54FF000050AE050EA010216
:102CF00008BF704730B511F0004502D5404261EB86
:102D000041014FF4806404F132045FEA915C3FF4C6
:102D1000D8AE4FF003025FEADC0C18BF03325FEA63
:102D2000DC0C18BF033202EBDC02C2F1200300FA14
:102D300003FC20FA02F001FA03FE40EA0E0021FA39
:102D400002F11444BDE600BF53B94AB9002908BFD7
:102D500000281CBF4FF0FF314FF0FF3000F06CB97E
:102D6000ADF1080C6DE904CE00F006F8DDF804E0E2
:102D7000DDE9022304B070472DE9F047089E0D46B7
:102D800004468E46002B40F082808A42174646D980
:102D9000B2FA82F24AB1C2F1200105FA02F320FA36
:102DA00001F1974041EA030E94404FEA1748230C83
:102DB000BEFBF8FCB9B208FB1CEE43EA0E430CFB69
:102DC00001F098420AD9FB180CF1FF3580F016810A
:102DD000984240F21381ACF1020C3B441B1AA4B29E
:102DE000B3FBF8F008FB103344EA034400FB01F1A5
:102DF000A14209D93C1900F1FF3380F00181A142C1
:102E000040F2FE8002383C44641A40EA0C40002143
:102E10001EB1D4400023C6E90043BDE8F08702B9E3
:102E2000FFDEB2FA82F2002A4FD1CB1B4FEA174ED7
:102E30001FFA87F80121B3FBFEFC250C0EFB1C33A7
:102E400045EA034508FB0CF3AB4207D97D190CF1A9
:102E5000FF3002D2AB4200F2E7808446ED1AA3B203
:102E6000B5FBFEF00EFB105543EA054408FB00F8E5
:102E7000A04507D93C1900F1FF3302D2A04500F26A
:102E8000D7801846A4EB080440EA0C40C0E78B4208
:102E900008D9002E00F0AF800021C6E900050846E1
:102EA000BDE8F087B3FA83F100294BD1AB4202D3DE
:102EB000824200F2B780841A65EB030301209E462C
:102EC000002EAAD0C6E9004EA7E7C2F1200C01FAF5
:102ED00002F3974020FA0CF04FEA174E21FA0CFC4F
:102EE0001843BCFBFEF1050C0EFB11CC1FFA87F852
:102EF00045EA0C4501FB08F3AB4204FA02F409D998
:102F00007D1901F1FF3C80F08B80AB4240F288805C
:102F100002393D44EB1A85B2B3FBFEF00EFB1033D1
:102F200045EA034500FB08F3AB4207D97D1900F1E0
:102F3000FF3C71D2AB426FD902383D44EB1A40EAF4
:102F4000014178E7C1F1200C8B4022FA0CF71F43B6
:102F500020FA0CF405FA01F34FEA174E25FA0CF5A6
:102F60001C43230CB5FBFEF91FFA87F80EFB19551D
:102F700043EA054509FB08FAAA4502FA01F200FAFC
:102F800001F308D97D1909F1FF3047D2AA4545D987
:102F9000A9F102093D44A5EB0A05A4B2B5FBFEF078
:102FA0000EFB105544EA054400FB08F8A04507D97C
:102FB0003C1900F1FF352DD2A0452BD902383C44F5
:102FC00040EA0940A4EB0804A0FB02894C45C64630
:102FD0004D4619D316D05EB1B3EB0E0264EB050477
:102FE00004FA0CFCCA404CEA0202CC40C6E90024B8
:102FF0000021BDE8F087314630460EE7AC46EDE6ED
:10300000184601E74345E6D2B8EB020E69EB070527
:103010000138E0E72846D3E760468FE78146BAE704
:10302000614677E708464BE7ACF1020C3D4415E7F3
:1030300002383C4426E700BF704700BF0A22002147
:1030400000F00AB9014B1868704700BF1800002053
:103050000A44914200F1FF3300D1704710B511F8D6
:10306000014B03F8014F9142F9D110BD02440346D0
:10307000934200D1704703F8011BF9E70CB430B557
:10308000174B0C1E1D689DB008DA8B232B604FF088
:10309000FF301DB0BDE8304002B070474FF40273FE
:1030A000ADF8143014BF04F1FF33234604930793A3
:1030B0004FF6FF7302900690ADF81630209A21ABC0
:1030C00002A92846019300F067F9431CBCBF8B237B
:1030D0002B60002CDDD0029B00221A70D9E700BFC4
:1030E000180000200EB400B59CB01DAB02900690F5
:1030F0006FF00041094807910491094953F8042BE6
:1031000005910068019302A900F046F9029B002294
:103110001A701CB05DF804EB03B070471800002073
:103120000802FFFF034613F8012B002AFBD1181AEF
:1031300001387047F0B50C7864B103461A78184628
:103140005E1C0AB9104605E0944208D10D4615F8F8
:10315000012F02B9F0BD13F8017F9742F7D0334633
:10316000ECE700002DE9F0473A4E86468C46604673
:103170001CF8014BA55D15F00805F8D12D2C33D1B5
:103180009CF800404FF0010800F1020C002B5CD0CD
:10319000102B0CD1302C0AD19CF8000000F0DF007D
:1031A00058284DD19CF8014010230CF1020C08F175
:1031B0000047013F0026B7FBF3F9304603FB197ABD
:1031C000A4F13005092D18D82C46A34224DD751C26
:1031D00007D081451DD301D1A2451ADB00FB034076
:1031E00001261CF8014BEBE72B2C08BF9CF8004094
:1031F000A84608BF00F1020CC8E7A4F14105192D4B
:1032000001D8373CE1E7A4F16105192D04D8573CFA
:10321000DBE74FF0FF36E4E7731C06D12223CEF83C
:103220000030384642B9BDE8F087B8F1000F00D051
:103230004042002AF7D00EB10CF1FF311160F2E7E5
:103240003024002BB3D10823B1E7302CA4D00A23BB
:10325000ADE700BFD63F000813460A4601460248C4
:103260000068FFF77FBF00BF1800002030B5141EB4
:1032700005469BB0184605DA8B232B604FF0FF30D4
:103280001BB030BD4FF40273ADF80C3014BF04F125
:10329000FF332346029305934FF6FF730091049189
:1032A000ADF80E3002461E9B6946284600F074F8C1
:1032B000431CBCBF8B232B60002CE1D0009B002261
:1032C0001A70DDE707B5009313460A460146034826
:1032D0000068FFF7CBFF03B05DF804FB1800002087
:1032E0002DE9F0478E689E4282460C4690461F4666
:1032F00038D88A8912F4906F32D025680969A5EB15
:103300000109656905EB450505EBD57501334B44AE
:103310006D109D4238BF1D46530531D5294600F03A
:1033200087FB064650B90C23CAF80030A38943F046
:103330004003A3814FF0FF30BDE8F08721694A4682
:10334000FFF786FEA38923F4906343F08003A381F3
:10335000266165614E44A5EB09052660A5603E46E1
:10336000BE4200D93E4632462068414600F0F8FA97
:10337000A36822689B1B3244A36022600020DBE725
:103380002A4600F0AFFB06460028E1D121695046ED
:1033900000F000FBC7E700002DE9F04F98468B894D
:1033A0001B069DB007460D4614460ED50B6963B942
:1033B000402100F03DFB2860286120B90C233B60D0
:1033C0004FF0FF30D1E040236B61002309932023AD
:1033D0008DF82930CDF80C803023DFF8A8818DF8E6
:1033E0002A304FF0010923469A4613F8012B0AB1FF
:1033F000252AF9D1BAEB040B0BD05B4622462946AD
:103400003846FFF76DFF013000F0AA80099A5A4450
:1034100009929AF80030002B00F0A28000234FF0B0
:10342000FF32CDE905230AF1010A049307938DF8D1
:1034300053301A935446052214F8011B514800F0EA
:103440003FFA049AD8B9D00644BF20238DF85330F0
:10345000110744BF2B238DF853309AF800302A2BE4
:1034600015D0079A544600204FF00A0C214611F857
:10347000013B303B092B4ED9B0B1079214E0A0EBD1
:10348000080309FA03F313430493A246D2E7039B0C
:10349000191D1B680391002BBBBF5B4242F0020267
:1034A00007930793B8BF049223782E2B0CD163782F
:1034B0002A2B35D1039B1A1D1B680392002BB8BF22
:1034C0004FF0FF3302340593DFF8C8A021780322C0
:1034D000504600F0F5F940B14023A0EB0A0003FA92
:1034E00000F0049B03430134049314F8011B2648A5
:1034F0008DF82810062200F0E3F9002838D0234B7D
:103500001BBB039B073323F0070308330393099B7B
:103510003344099367E70CFB02320C460120A5E710
:1035200000230134059319464FF00A0C204610F889
:10353000012B303A092A03D9002BC5D00591C3E7E6
:103540000CFB012104460123F0E703AB00932A465C
:103550000F4B04A93846AFF30080421C0646D6D173
:10356000AB895B063FF52CAF09981DB0BDE8F08F25
:1035700003AB00932A46064B04A9384600F07AF8BC
:10358000EBE700BFD6400008E04000080000000064
:10359000E1320008DC4000082DE9F0471646994664
:1035A0008A680B69DDF820809342B8BF1346336008
:1035B00091F8432007460C460AB101333360236873
:1035C000990642BF336802333360256815F006055B
:1035D00006D104F1190AE36832689B1AAB4226DC73
:1035E00094F84320131E226818BF012392062BD49F
:1035F00004F1430249463846C04701301ED02368D3
:10360000E568326803F00603042B08BFAD1AA3680F
:1036100022690CBF25EAE57500259342C4BF9B1AB9
:10362000ED1800261A34B5421AD1002008E0012313
:10363000524649463846C047013003D14FF0FF306B
:10364000BDE8F0870135C6E7E1185A1C302081F843
:103650004300224494F8451082F843100233C7E730
:103660000123224649463846C0470130E6D001369C
:10367000D9E700002DE9FF470C469146277E0C99BB
:10368000782F80469A4604F1430207D8622F0AD861
:10369000002F00F0D880582F00F0A38004F14206DC
:1036A00084F842703AE0A7F16303152BF6D801A025
:1036B00050F823F00D370008213700089D36000828
:1036C0009D3600089D3600089D3600082137000809
:1036D0009D3600089D3600089D3600089D3600087E
:1036E0002D380008513700080F3800089D360008B3
:1036F0009D3600084F3800089D36000851370008F5
:103700009D3600089D360008173800080B681A1D02
:103710001B680A6004F1420684F842300123A3E0EA
:10372000256808682E0600F104030AD505680B60B9
:10373000002D03DA2D236D4284F843305E480A23BE
:1037400019E015F0400F05680B6018BF2DB2EFE7C8
:103750000B682568181D0860280601D51D6802E061
:103760006906FBD51D8854486F2F0CBF08230A2318
:10377000002184F843106668A660002EA2BF21686D
:1037800021F0040121600DB9002E4DD01646B5FB85
:10379000F3F103FB1157C75D06F8017D2F46BB42CD
:1037A0000D46F4D9082B0BD12368DF0708D5236910
:1037B00061689942DEBF302306F8013C06F1FF360E
:1037C000921B2261CDF800A04B4603AA2146404639
:1037D000FFF7E2FE01304CD14FF0FF3004B0BDE8FE
:1037E000F087354884F8457023680E681F0656F840
:1037F000045B0E6014D5D90744BF43F02003236057
:103800001DB9236823F0200323601023B0E7236849
:1038100043F0200323607823284884F84530E3E709
:103820005E0648BFADB2E6E71646BBE70B68266802
:1038300060691D1D0D6035061B6801D5186002E02A
:103840007106FBD51880002323611646BAE70B6882
:103850001A1D0A601E6862680021304600F030F8C8
:1038600008B1801B606063682361002384F84330E3
:10387000A8E72369324649464046D0470130ABD0DD
:1038800023689B0713D4E068039B9842B8BF18468F
:10389000A4E70123324649464046D04701309BD039
:1038A0000135E36803995B1AAB42F2DCEBE70025D4
:1038B00004F11906F5E700BFE7400008F8400008EA
:1038C00001F0FF01102A2BDB10F0070F08D010F8D1
:1038D000013B013A8B422DD010F0070F42B3F6D1D5
:1038E000F0B441EA012141EA014122F007047FF0EE
:1038F00000070023F0E80256083C85EA010586EA45
:10390000010685FA47F5A3FA87F586FA47F6A5FA80
:1039100087F68EB9EED1F0BC01F0FF0102F007028C
:1039200032B110F8013B013A83EA010313B1F8D137
:103930000020704701387047002D06BF3546033818
:10394000073815F0010F07D1013015F4807F02BF51
:10395000013015F4C03F0130F0BC0138704700BFA2
:10396000884210B501EB020402D98442234607D8ED
:10397000431EA14208D011F8012B03F8012FF8E7EC
:10398000024401468A4200D110BD13F8014D02F8ED
:10399000014DF7E738B50546002945D051F8043CFC
:1039A0000C1F002BB8BFE41800F0D2F81F4A1368B0
:1039B000104633B9636014602846BDE8384000F013
:1039C000CDB8A3420BD921686218934204BF1A688C
:1039D0005B68636004BF521822600460ECE71A461B
:1039E0005B680BB1A342FAD911685018A0420BD101
:1039F00020680144501883421160DDD118685B686B
:103A0000536001441160D7E702D90C232B60D3E740
:103A1000206821188B4204BF19685B68636004BF8B
:103A2000091821605460C7E738BD00BF800C002032
:103A3000F8B5CD1C25F0030508350C2D38BF0C2535
:103A4000002D064601DBA94203D90C233360002078
:103A5000F8BD00F07DF821490A6814469CB9204F52
:103A60003B6823B92146304600F062F838602946A9
:103A7000304600F05DF8431C23D10C233360304600
:103A800000F06CF8E3E723685B1B17D40B2B03D91A
:103A900023601C44256004E06368A2420CBF0B60F5
:103AA0005360304600F05AF804F10B00231D20F05B
:103AB0000700C21ACCD01B1AA350C9E7224664687B
:103AC000CCE7C41C24F00304A042E3D0211A304602
:103AD00000F02EF80130DDD1CFE700BF800C0020D0
:103AE000840C0020F8B5074614460E4621B9BDE8FF
:103AF000F8401146FFF79CBF22B9FFF74BFF254660
:103B00002846F8BD00F030F8A0420FD221463846D2
:103B1000FFF78EFF05460028F2D031462246FFF718
:103B200097FA31463846FFF735FFE9E73546E7E7CC
:103B300038B5064D0023044608462B60FDF786FE87
:103B4000431C02D12B6803B1236038BD8C0C0020CC
:103B5000014800F011B800BF8C0D0020014800F0B2
:103B60000CB800BF8C0D002051F8043C181F002B2E
:103B7000BCBF0B58C0187047704770472E2E2F736C
:103B8000797374656D2F7372632F73746D3332663E
:103B9000342D68616C2F73746D3332663478785FBE
:103BA00068616C5F636F727465782E63000000005B
:103BB0002E2E2F73797374656D2F7372632F737448
:103BC0006D333266342D68616C2F73746D333266D9
:103BD0003478785F68616C5F6770696F2E6300008E
:103BE0002E2E2F73797374656D2F7372632F737418
:103BF0006D333266342D68616C2F73746D333266A9
:103C00003478785F68616C5F7263632E63000000D4
:103C10002E2E2F73797374656D2F7372632F7374E7
:103C20006D333266342D68616C2F73746D33326678
:103C30003478785F68616C5F756172742E63000020
:103C4000537461636B206672616D653A0A0000000F
:103C5000205230203D2020253038580A0000000036
:103C6000205231203D2020253038580A0000000025
:103C7000205232203D2020253038580A0000000014
:103C8000205233203D2020253038580A0000000003
:103C900020523132203D20253038580A00000000E3
:103CA000204C52203D2020253038580A00000000CA
:103CB000205043203D2020253038580A00000000C5
:103CC00020505352203D20253038580A0000000073
:103CD0004653522F4641523A0A00000020434653B1
:103CE00052203D2020253038580A000020484653F5
:103CF00052203D2020253038580A000020444653E9
:103D000052203D2020253038580A000020414653DB
:103D100052203D2020253038580A0000204D4D46C5
:103D20004152203D20253038580A000020424641AB
:103D300052203D2020253038580A00004D69736319
:103D40000A000000204C522F4558435F52455455FD
:103D5000524E3D20253038580A0000005B48617201
:103D6000644661756C745D0A000000005B42757307
:103D70004661756C745D0A005B55736167654661E9
:103D8000756C745D0A000000000000000000000077
:103D900001020304060708090000000001020304F1
:103DA0004D515454000000004D514973647000009F
:103DB00041542B43495053544152543D2254435093
:103DC000222C222573222C25640D0A004F4B0D0A4C
:103DD0000000000041540D0A00000000415445302D
:103DE0000D0A000053485554204F4B0D0A000000A7
:103DF00041542B434950534855540D0A00000000CC
:103E000041542B43474154543D310D0A00000000FA
:103E100041542B4349504D4F44453D310D0A00005C
:103E200041542B435354543D222573222C22257395
:103E3000222C222573220D0A0000000041542B433E
:103E4000494943520D0A000041542B4349465352FD
:103E50000D0A000025750000256C75002566000020
:103E6000445920434F4E4E4543540D0A0000000074
:103E7000434F4E4E4543540D0A000000434C4F53F0
:103E800045440D0A000000004552524F520D0A00F1
:103E900044454143540D0A004D5154430000000075
:103EA000040000000000000000000000000000000E
:103EB0003C0001004D51545700000000000000007C
:103EC00000000000000000000000000000000000F2
:103ED00000000000000000000000000000000000E2
:103EE00000000000000000000000000000000000D2
:103EF00057726F6E6720706172616D657465727361
:103F00002076616C75653A2066696C6520257320A2
:103F10006F6E206C696E652025640D0A000000003C
:103F2000696E7465726E6574000000007465737468
:103F30002E6D6F7371756974746F2E727500000049
:103F400075736572000000007061737300000000FB
:103F500054657374537562007465737400000000D7
:103F6000737472696E67000053544D33322F73744B
:103F700072696E670000000053544D33322F75692B
:103F80006E74380053544D33322F75696E74313668
:103F90000000000053544D33322F75696E74333274
:103FA0000000000053544D33322F666C6F61740073
:103FB00053544D33322F646F75626C6500000000FE
:103FC0006D717474526563656976653A2025733A3C
:103FD0002025640A000020202020202020202028E6
:103FE00028282828202020202020202020202020B1
:103FF00020202020202088101010101010101010E9
:104000001010101010100404040404040404040428
:1040100010101010101010414141414141010101A7
:104020000101010101010101010101010101010180
:10403000011010101010104242424242420202028D
:104040000202020202020202020202020202020250
:1040500002101010102000000000000000000000FE
:104060000000000000000000000000000000000050
:104070000000000000000000000000000000000040
:104080000000000000000000000000000000000030
:104090000000000000000000000000000000000020
:1040A0000000000000000000000000000000000010
:1040B0000000000000000000000000000000000000
:1040C00000000000000000000000000000000000F0
:1040D000000000000000232D302B2000686C4C00F5
:1040E00065666745464700303132333435363738F8
:1040F0003941424344454600303132333435363756
:09410000383961626364656600F0
:08410C006CECFF7F01000000D4
:104114007856341201FFFFFF1000000088000020D1
:10412400000000000024F4001C0000200000000037
:10413400000000000000000000000000000000007B
:10414400000000000000000000000000000000006B
:10415400000000000000000000000000000000005B
:10416400000000000000000000000000000000004B
:10417400000000000000000000000000000000003B
:104184000000000000000000000000003254769897
:04000005080001AD41
:00000001FF
